:020000040800F2
:1000000000500020950400087D0400087F040008CB
:100010008104000883040008850400080000000033
:10002000000000000000000000000000870400083D
:1000300089040008000000008B0400088D040008FB
:10004000DD040008DD040008DD040008DD0400080C
:10005000DD040008DD040008DD040008DD040008FC
:10006000DD040008DD040008DD040008DD040008EC
:10007000DD040008DD040008DD040008DD040008DC
:10008000DD040008DD040008DD040008DD040008CC
:10009000DD040008DD040008DD040008DD040008BC
:1000A000DD040008DD040008DD040008DD040008AC
:1000B000DD040008DD040008DD040008DD0400089C
:1000C000DD040008DD040008DD040008DD0400088C
:1000D000DD040008DD040008DD040008DD0400087C
:1000E000DD040008DD040008DD0400080000000055
:1000F0000000000000000000000000000000000000
:0C01000000000000000000005FF808F1A3
:10010C0010B5054C237833B9044B13B10448AFF345
:10011C0000800123237010BD0C00002000000000A3
:10012C002812000808B5034B1BB103490348AFF371
:10013C00008008BD000000001000002028120008FC
:10014C001FB500F0F003000143F00C02C0B243F005
:10015C0008038DF80D3040F00C038DF80E3064233D
:10016C0040F008008DF80C208DF80F0000934E2104
:10017C00042303AA024800F0DFFC05B05DF804FB81
:10018C00280000201FB500F0F003000143F00D0221
:10019C00C0B243F009038DF80D3040F00D038DF81B
:1001AC000E30642340F009008DF80C208DF80F0000
:1001BC0000934E21042303AA024800F0BDFC05B0B5
:1001CC005DF804FB2800002020B1012805D0C8B23E
:1001DC00FFF7B6BF41F08001F9E741F0C001F6E747
:1001EC0008B5322000F0BEF93020FFF7A9FF05203A
:1001FC0000F0B8F93020FFF7A3FF012000F0B2F9AE
:10020C003020FFF79DFF0A2000F0ACF92020FFF70B
:10021C0097FF0A2000F0A6F92820FFF791FF012094
:10022C0000F0A0F90820FFF78BFF012000F09AF9ED
:10023C000120FFF785FF012000F094F9012000F068
:10024C0091F90620FFF77CFF012000F08BF9BDE847
:10025C0008400C20FFF774BF10B5441E14F8010FB2
:10026C0000B910BDFFF78EFFF8E710B590B014225F
:10027C00002108A800F0CAFF1422002101A800F0F8
:10028C00C5FF02244FF480330122CDE90D43CDE9A3
:10029C0006234FF4E01306A80A920F9300F024FDF6
:1002AC0008B172B6FEE70F23CDE901344FF4806339
:1002BC000390CDE90430214601A800F0D7FE08B127
:1002CC0072B6FEE710B010BD00B589B000F026F98B
:1002DC00FFF7CBFF102200210DEB020000F096FF80
:1002EC00324B4FF400519A69314842F010029A6136
:1002FC009A69012502F010020092009A9A69002472
:10030C0042F020029A619A6902F020020192019A4D
:10031C009A6942F004029A619A6902F0040202920C
:10032C00029A9A6942F008029A619B69002203F0D2
:10033C0008030393039B00F059FA4FF40053CDE9E3
:10034C00043502231A4804A9CDE9064300F074F9D8
:10035C001848194A194BC0E90244C0E900234FF46C
:10036C008043C0E90644C0E90434046200F03CFB5D
:10037C00044608B172B6FEE7FFF732FF214620466D
:10038C00FFF722FF0E48FFF767FF21462846FFF7CD
:10039C001BFF0C48FFF760FF054C20464FF4005143
:1003AC0000F029FAC82000F0DDF8F6E70010024052
:1003BC00001001402800002000540040A0860100DD
:1003CC00401200084C1200080E4B82B09A6942F0A1
:1003DC0001029A619A6902F001020092009ADA69AC
:1003EC0042F08052DA61DB69074A03F080530193D3
:1003FC00019B536823F0E06343F00073536002B039
:10040C00704700BF001002400000014010B50446C8
:10041C0086B01022002102A800F0F8FE2268114BD1
:10042C009A421CD1104CC022A369104843F0080317
:10043C00A361A36902A903F008030093009B122394
:10044C00CDE902230323059300F0F6F8E36943F4A6
:10045C000013E361E36903F400130193019B06B0FD
:10046C0010BD00BF0054004000100240000C0140C1
:10047C00FEE7FEE7FEE7FEE7FEE7704770477047D2
:10048C0000F05EB870470000FFF7FCFF0B480C490A
:10049C000C4A002302E0D458C4500433C4188C42D4
:1004AC00F9D3094A094C002301E013600432A2423B
:1004BC00FBD300F087FEFFF707FF7047000000201A
:1004CC000C0000208C1200080C0000208000002082
:1004DC00FEE7000038B50E4B054618784FF47A73DA
:1004EC00B3FBF0F30B4A1068B0FBF3F000F090F89C
:1004FC00044658B90F2D09D8024629464FF0FF3053
:10050C0000F054F82046044B1D6038BD0120FCE778
:10051C00040000200000002008000020074A08B555
:10052C001368032043F01003136000F02DF80F2024
:10053C00FFF7D0FFFFF748FF002008BD0020024066
:10054C00034A044B11681B780B441360704700BFBF
:10055C007C00002004000020014B1868704700BF8D
:10056C007C00002038B50446FFF7F6FF0546631CF7
:10057C001EBF044B1B78E418FFF7EEFF431BA3428E
:10058C00FAD338BD0400002007490302CA6803F4FB
:10059C00E06322F4E0621204120C134343F0BF63D5
:1005AC0043F40033CB60704700ED00E0164B30B5E0
:1005BC00DC68C4F30224C4F10703251D042B28BFF7
:1005CC000423062D4FF0FF3598BF002405FA03F3E2
:1005DC0088BF033C21EA0303A34005FA04F422EA92
:1005EC000402002843EA0203ACBF00F16040074A52
:1005FC004FEA0313DBB2ABBF00F5614000F00F0014
:10060C0080F80033135430BD00ED00E014ED00E031
:10061C000138B0F1807F0BD24FF0E023F021054A76
:10062C00586182F823100020072298611A617047E4
:10063C000120704700ED00E02DE9F74F002216462F
:10064C00644F654BDFF894C1DFF894E10D6835FA1F
:10065C0006F402D103B0BDE8F08F4FF0010808FAA0
:10066C0006F805EA080438EA05057BD14D68032D28
:10067C0007D8013D022D00F28880DFE805F0969B3B
:10068C00A100122D00F099806ED8112D00F08F80F2
:10069C00FF2C98BF82464FF00F0988BF00F1040A67
:1006AC004FEA8605DAF8008088BF203D09FA05FB81
:1006BC0028EA0B0802FA05F548EA0505CAF80050C5
:1006CC00D1F804A01AF0805F4CD0BD6926F0030865
:1006DC0045F00105BD61BD6908F1804805F00105D3
:1006EC00019508F5803806F0030B019D4FEA8B0B42
:1006FC00D8F8085009FA0BF925EA0909394DA8422E
:10070C0062D005F58065A84260D005F58065A842E9
:10071C005ED005F58065A8420CBF0325042505FABB
:10072C000BF545EA0905C8F808509D681AF4801FB6
:10073C0014BF2543A5439D60DD681AF4001F14BF48
:10074C002543A543DD605D681AF4003F14BF2543C3
:10075C00A5435D601D681AF4803F14BF2C4325EA45
:10076C0004041C60013671E7DFF87C904D450CD019
:10077C0017D8A9F580194D4507D009F570294D45B5
:10078C0003D0A9F580194D4582D18A68D2B1012ACE
:10079C0008BFC0F810804FF0080218BFC0F81480D2
:1007AC0076E76545F1D07545EEE7CA6870E7CA682B
:1007BC0004326DE7CA6808326AE7CA680C3267E728
:1007CC00002265E7042263E70025A8E70125A6E7D8
:1007DC000225A4E700100240000401400000311083
:1007EC000000321000080140000022100AB1016123
:1007FC0070470904FBE7C36801EA030221EA03011D
:10080C0041EA024101617047016800224B6913F40F
:10081C00806310D06FF480634B612023026380F8F7
:10082C003D3080F83E20036C80F83C2043F00403FC
:10083C00036401207047184670472DE9F8460646B8
:10084C000F4691461D464FEA114A3368BAF1010F23
:10085C000CBF5C699C6927EA0404A4B2B4FA84F462
:10086C006409A14501D0002025E06A1CEED0FFF7F9
:10087C0073FE089BC01AA84201D8002DE5D133683D
:10088C00BAF1010F0CBF5B699B6927EA03039BB2AA
:10089C00B3FA83F35B099945D7D1002320220120B9
:1008AC00336386F83D2086F83E30326C86F83C3057
:1008BC0042F020023264BDE8F8862DE9F04104468E
:1008CC000F46164698462568686927EA000080B2EC
:1008DC00B8B16B695A0516D52B68202243F4007306
:1008EC002B606FF480636B610023236384F83D20DD
:1008FC0084F83E30226C42F004020120226484F819
:10090C003C30BDE8F081731CDED0FFF725FEA0EB78
:10091C000800B04201D8002ED5D123685A6927EAC5
:10092C00020292B2002ACED000232022236384F844
:10093C003D2084F83E30226C42F02002DDE770B599
:10094C0004460D46164623685B691B0601D500203C
:10095C0070BD2046FFF758FFC8B96A1CF3D0FFF7EB
:10096C00FBFD801BA84201D8002DECD123685B69EC
:10097C0013F08003E7D12022236384F83D2084F810
:10098C003E30226C84F83C3042F02002226401207C
:10099C00DEE770B504460D46164623685B695B07B7
:1009AC0001D5002070BD2046FFF72EFFC8B96A1C88
:1009BC00F3D0FFF7D1FD801BA84201D8002DECD15C
:1009CC0023685B6913F00403E7D12022236384F8C6
:1009DC003D2084F83E30226C84F83C3042F02002FA
:1009EC0022640120DEE7000070B5044608B901203E
:1009FC0070BD90F83D3003F0FF021BB980F83C202D
:100A0C00FFF704FD242384F83D3023681A6822F094
:100A1C0001021A601A6842F400421A601A6822F441
:100A2C0000421A6000F0BEFB3F4A6368934294BFD9
:100A3C003E4A3F4A90428CBF00220122002AD6D166
:100A4C00394E3C49B342B0FBF1F188BF4FF4967676
:100A5C00226800F1FF30556825F03F0545EA010595
:100A6C0082BF71434FF47A76B1FBF6F15560156A8B
:100A7C00013125F03F0529431162D1692A4D21F43A
:100A8C004F41AB4221F0FF0132D85B00B0FBF3F0D9
:100A9C00431C40F6FC70034242D0C3F30B030B43E0
:100AAC00D3611168D4E9073021F0C00103430B4333
:100ABC0013609168D4E9030321F40341034321F04B
:100ACC00FF010B439360D168D4E9053021F0FF019D
:100ADC0003430B43D3601368002043F001031360FE
:100AEC002023206484F83D30206384F83E007FE7A7
:100AFC00A56855B903EB4303B0FBF3F30133C3F320
:100B0C000B037BB143F40043C9E719256B43B0FBDE
:100B1C00F3F30133C3F30B0323B143F44043BEE7B8
:100B2C000423BCE70123BAE7A08601007F841E00E2
:100B3C00FF083D0040420F002DE9F043044685B00C
:100B4C0098460D4691460C9FFFF706FD94F83D30F4
:100B5C000646202B04D00225284605B0BDE8F083BC
:100B6C0000901923012220465B49FFF766FE0028FE
:100B7C00F1D194F83C30012BEDD00123216884F89D
:100B8C003C300B68DA075EBF0B6843F001030B6067
:100B9C000B6823F400630B60212384F83D30102391
:100BAC0084F83E3000232364A4F82A80638DC4F8B3
:100BBC0024902385494BE362E36A082B04D0012B74
:100BCC0002D013F5803F04D10B6843F480730B60A3
:100BDC0002E0236B122BF7D000223B464FF00111A1
:100BEC0020460096FFF729FE226838B11368DB0512
:100BFC0044BF4FF4007323640125ADE72369B3F5BB
:100C0C00804F21D105F0FE05156133463A4620464A
:100C1C003349FFF752FE05460028EDD123680390B7
:100C2C005A6903929B690393039B238DF3B9216843
:100C3C000A6842F400720A60202284F83C3084F87E
:100C4C003D2084F83E3087E7EB1103F0060343F0B8
:100C5C00F0031361204633463A462249FFF72DFE36
:100C6C000028C9D12368EDB21D61CEE73246394662
:100C7C002046FFF764FE40B1236C042BBCD12268E4
:100C8C00136843F400731360B6E7636A20681A466E
:100C9C0012F8011B01616262628D013A92B26285A7
:100CAC00228DD0F814C0511E89B21CF0040F21857E
:100CBC000AD049B15978023301616362638D023AFB
:100CCC00013B9BB263852285324639462046FFF7AD
:100CDC0060FE0028A9D0CFE7020010000000FFFF43
:100CEC0002000100080001002DE9F341054638B36C
:100CFC000368DB0710D42B689F075ED42B68190799
:100D0C0000F195802B685A0700F1C180E869002832
:100D1C0040F02C81002029E0904C636803F00C0318
:100D2C00042B07D0636803F00C03082B0AD163680B
:100D3C00DE0307D523689C03DDD56B68002BDAD165
:100D4C00012013E06B68B3F5803F12D1236843F4A4
:100D5C0080332360FFF700FC064623689803CAD44F
:100D6C00FFF7FAFB801B6428F7D9032002B0BDE81B
:100D7C00F0819BB9236823F480332360236823F428
:100D8C0080232360FFF7E8FB064623689903B2D55E
:100D9C00FFF7E2FB801B6428F7D9E6E7B3F5A02F39
:100DAC00236803D143F480232360CFE723F48033FB
:100DBC002360236823F48023CBE7684C636813F02B
:100DCC000C0F07D0636803F00C03082B10D1636879
:100DDC00DA030DD423689B0702D52B69012BAFD105
:100DEC0023686A6923F0F80343EAC203236085E7AA
:100DFC002A695B4B6AB101221A60FFF7ADFB06460C
:100E0C0023689F07ECD4FFF7A7FB801B0228F7D9B8
:100E1C00ABE71A60FFF7A0FB0646236898077FF53F
:100E2C006DAFFFF799FB801B0228F6D99DE7AA69E5
:100E3C004A4E4B4BE2B10122C3F88024FFF78CFBE6
:100E4C000446736A9B070DD54FF4FA52454B1B6849
:100E5C00B3FBF2F3019300BF019B5A1E0192002BCE
:100E6C00F9D14FE7FFF778FB001B0228E9D97CE7A3
:100E7C00C3F88024FFF770FB0446736A9F077FF565
:100E8C0041AFFFF769FB001B0228F6D96DE7334C25
:100E9C00E369D80024D40127E36943F08053E3616C
:100EAC00E36903F080530093009B2F4E3368D90500
:100EBC0018D5EB68012B26D1236A43F0010323627A
:100ECC00FFF74AFB41F288380646236A9B073FD559
:100EDC00002F3FF41BAFE36923F08053E36115E768
:100EEC000027E2E7336843F480733360FFF734FB89
:100EFC0080463368DA05DCD4FFF72EFBA0EB080044
:100F0C006428F6D931E7ABB9236A41F2883823F06B
:100F1C0001032362236A23F004032362FFF71CFB03
:100F2C000646236A9807D3D5FFF716FB801B40456E
:100F3C00F7D91AE7052B236A03D143F00403236284
:100F4C00BAE723F001032362236A23F00403B6E714
:100F5C00FFF702FB801B4045B7D906E700100240A3
:100F6C000000424200000020007000402A4C6368E0
:100F7C0003F00C03082B3ED00022284B02281A66E3
:100F8C002CD1FFF7E9FA06462368990120D42B6A85
:100F9C00B3F5803F05D16268A96822F400320A4398
:100FAC006260696A62680B4322F474121343012273
:100FBC0063601A4B1A66FFF7CFFA054623689A014D
:100FCC003FF5A8AEFFF7C8FA401B0228F6D9CCE6CD
:100FDC00FFF7C2FA801B0228D6D9C6E6FFF7BCFA87
:100FEC00054623689B017FF595AEFFF7B5FA401BCC
:100FFC000228F6D9B9E601283FF4B8AE63682A6A2C
:10100C0003F4803191427FF49BAE6A6A03F470134F
:10101C0093423FF47FAE93E6001002400000424240
:10102C000D4A536803F00C01082912D10B48C3F385
:10103C008341DB03405C09D55368094AC3F3404341
:10104C005043084AD35CB0FBF3F07047064B58434F
:10105C0070470348704700BF001002406F12000831
:10106C0000127A007F12000800093D002DE9F041C2
:10107C000D46044610B90120BDE8F081444A1368BE
:10108C0003F007038B4228D321688E0730D4CA079C
:10109C0043D43F4A136803F00703AB4265D8226878
:1010AC003C4D12F0040F6CD1130706D56B68226906
:1010BC0023F4605343EAC2036B60FFF7B1FF6B6824
:1010CC00354AC3F30313D35CD840344B1860344B0C
:1010DC001868FFF7FFF90020CEE7136823F0070329
:1010EC000B431360136803F007038B42C3D1CBE7A8
:1010FC00284B11F0040F1EBF5A6842F4E0625A608C
:10110C00080742BF5A6842F460525A605A68A06895
:10111C0022F0F00202435A60B9E762681D4E012AC0
:10112C0033681AD113F4003FA5D0736841F28838A4
:10113C0023F0030313437360FFF70EFA074673683B
:10114C00626803F00C03B3EB820FA2D0FFF704FA32
:10115C00C01B4045F3D903208EE7022A02D113F0BD
:10116C00007FE1E713F0020FDEE7136823F00703BB
:10117C002B431360136803F00703AB427FF47BAF80
:10118C008DE76B68E16823F4E0630B436B608BE7DE
:10119C0000200240001002405712000800000020FE
:1011AC0008000020044B054A5B68C3F30223D35CA0
:1011BC00034A1068D84070470010024067120008BC
:1011CC000000002070B500260C4D0D4C641BA410C3
:1011DC00A64209D100F022F800260A4D0A4C641BE5
:1011EC00A410A64205D170BD55F8043B98470136B2
:1011FC00EEE755F8043B98470136F2E784120008F5
:10120C008412000884120008881200080346024465
:10121C00934200D1704703F8011BF9E7F8B500BF02
:10122C00F8BC08BC9E467047F8B500BFF8BC08BCBB
:04123C009E46704713
:1012400048454C4C4F20574F524C440066726F6DCE
:10125000205745454B410000000000000000000100
:10126000020304060708090000000001020304024B
:10127000030405060708090A0B0C0D0E0F101001D8
:041280000200000068
:04128400310100082C
:041288000D0100084C
:0C128C0000127A000100000010000000B9
:040000050800049556
:00000001FF
